{
  "_format": "hh-sol-artifact-1",
  "contractName": "Counter",
  "sourceName": "contracts/Counter.sol",
  "abi": [
    {
      "inputs": [],
      "stateMutability": "nonpayable",
      "type": "constructor"
    },
    {
      "inputs": [],
      "name": "decrement",
      "outputs": [],
      "stateMutability": "nonpayable",
      "type": "function"
    },
    {
      "inputs": [],
      "name": "getCount",
      "outputs": [
        {
          "internalType": "uint256",
          "name": "",
          "type": "uint256"
        }
      ],
      "stateMutability": "view",
      "type": "function"
    },
    {
      "inputs": [],
      "name": "increment",
      "outputs": [],
      "stateMutability": "nonpayable",
      "type": "function"
    },
    {
      "inputs": [],
      "name": "name",
      "outputs": [
        {
          "internalType": "string",
          "name": "",
          "type": "string"
        }
      ],
      "stateMutability": "view",
      "type": "function"
    },
    {
      "inputs": [],
      "name": "reset",
      "outputs": [],
      "stateMutability": "nonpayable",
      "type": "function"
    }
  ],
  "bytecode": "0x608060405234801561001057600080fd5b506040518060400160405280601881526020017f416e646572736f6e2064652043617374726f20476f6d657300000000000000008152506001908161005591906102ab565b5061037d565b600081519050919050565b7f4e487b7100000000000000000000000000000000000000000000000000000000600052604160045260246000fd5b7f4e487b7100000000000000000000000000000000000000000000000000000000600052602260045260246000fd5b600060028204905060018216806100dc57607f821691505b6020821081036100ef576100ee610095565b5b50919050565b60008190508160005260206000209050919050565b60006020601f8301049050919050565b600082821b905092915050565b6000600883026101577fffffffffffffffffffffffffffffffffffffffffffffffffffffffffffffffff8261011a565b610161868361011a565b95508019841693508086168417925050509392505050565b6000819050919050565b6000819050919050565b60006101a86101a361019e84610179565b610183565b610179565b9050919050565b6000819050919050565b6101c28361018d565b6101d66101ce826101af565b848454610127565b825550505050565b600090565b6101eb6101de565b6101f68184846101b9565b505050565b5b8181101561021a5761020f6000826101e3565b6001810190506101fc565b5050565b601f82111561025f57610230816100f5565b6102398461010a565b81016020851015610248578190505b61025c6102548561010a565b8301826101fb565b50505b505050565b600082821c905092915050565b600061028260001984600802610264565b1980831691505092915050565b600061029b8383610271565b9150826002028217905092915050565b6102b48261005b565b67ffffffffffffffff8111156102cd576102cc610066565b5b6102d782546100c4565b6102e282828561021e565b600060209050601f8311600181146103155760008415610303578287015190505b61030d858261028f565b865550610375565b601f198416610323866100f5565b60005b8281101561034b57848901518255600182019150602085019450602081019050610326565b868310156103685784890151610364601f891682610271565b8355505b6001600288020188555050505b505050505050565b61044f8061038c6000396000f3fe608060405234801561001057600080fd5b50600436106100575760003560e01c806306fdde031461005c5780632baeceb71461007a578063a87d942c14610084578063d09de08a146100a2578063d826f88f146100ac575b600080fd5b6100646100b6565b6040516100719190610260565b60405180910390f35b610082610144565b005b61008c6101a3565b604051610099919061029b565b60405180910390f35b6100aa6101ac565b005b6100b46101c7565b005b600180546100c3906102e5565b80601f01602080910402602001604051908101604052809291908181526020018280546100ef906102e5565b801561013c5780601f106101115761010080835404028352916020019161013c565b820191906000526020600020905b81548152906001019060200180831161011f57829003601f168201915b505050505081565b6000805411610188576040517f08c379a000000000000000000000000000000000000000000000000000000000815260040161017f90610362565b60405180910390fd5b600160008082825461019a91906103b1565b92505081905550565b60008054905090565b60016000808282546101be91906103e5565b92505081905550565b60008081905550565b600081519050919050565b600082825260208201905092915050565b60005b8381101561020a5780820151818401526020810190506101ef565b60008484015250505050565b6000601f19601f8301169050919050565b6000610232826101d0565b61023c81856101db565b935061024c8185602086016101ec565b61025581610216565b840191505092915050565b6000602082019050818103600083015261027a8184610227565b905092915050565b6000819050919050565b61029581610282565b82525050565b60006020820190506102b0600083018461028c565b92915050565b7f4e487b7100000000000000000000000000000000000000000000000000000000600052602260045260246000fd5b600060028204905060018216806102fd57607f821691505b6020821081036103105761030f6102b6565b5b50919050565b7f436f756e74206973207a65726f00000000000000000000000000000000000000600082015250565b600061034c600d836101db565b915061035782610316565b602082019050919050565b6000602082019050818103600083015261037b8161033f565b9050919050565b7f4e487b7100000000000000000000000000000000000000000000000000000000600052601160045260246000fd5b60006103bc82610282565b91506103c783610282565b92508282039050818111156103df576103de610382565b5b92915050565b60006103f082610282565b91506103fb83610282565b925082820190508082111561041357610412610382565b5b9291505056fea2646970667358221220512a9caf247674b28bf498c9c6fea21e3e51a9483e2a31d2fa9530f919aa2fd664736f6c634300081c0033",
  "linkReferences": {},
  "deployedLinkReferences": {}
}